{
  "_format": "hh-sol-artifact-1",
  "contractName": "Collection",
  "sourceName": "contracts/Collection4.sol",
  "abi": [
    {
      "inputs": [],
      "stateMutability": "nonpayable",
      "type": "constructor"
    },
    {
      "anonymous": false,
      "inputs": [
        {
          "indexed": true,
          "internalType": "address",
          "name": "owner",
          "type": "address"
        },
        {
          "indexed": true,
          "internalType": "address",
          "name": "approved",
          "type": "address"
        },
        {
          "indexed": true,
          "internalType": "uint256",
          "name": "tokenId",
          "type": "uint256"
        }
      ],
      "name": "Approval",
      "type": "event"
    },
    {
      "anonymous": false,
      "inputs": [
        {
          "indexed": true,
          "internalType": "address",
          "name": "owner",
          "type": "address"
        },
        {
          "indexed": true,
          "internalType": "address",
          "name": "operator",
          "type": "address"
        },
        {
          "indexed": false,
          "internalType": "bool",
          "name": "approved",
          "type": "bool"
        }
      ],
      "name": "ApprovalForAll",
      "type": "event"
    },
    {
      "anonymous": false,
      "inputs": [
        {
          "indexed": false,
          "internalType": "uint8",
          "name": "version",
          "type": "uint8"
        }
      ],
      "name": "Initialized",
      "type": "event"
    },
    {
      "anonymous": false,
      "inputs": [
        {
          "indexed": true,
          "internalType": "address",
          "name": "previousOwner",
          "type": "address"
        },
        {
          "indexed": true,
          "internalType": "address",
          "name": "newOwner",
          "type": "address"
        }
      ],
      "name": "OwnershipTransferred",
      "type": "event"
    },
    {
      "anonymous": false,
      "inputs": [
        {
          "indexed": false,
          "internalType": "string",
          "name": "baseURI_",
          "type": "string"
        },
        {
          "indexed": false,
          "internalType": "bool",
          "name": "sameForAllTokens",
          "type": "bool"
        }
      ],
      "name": "SetBaseURI",
      "type": "event"
    },
    {
      "anonymous": false,
      "inputs": [
        {
          "indexed": true,
          "internalType": "address",
          "name": "from",
          "type": "address"
        },
        {
          "indexed": true,
          "internalType": "address",
          "name": "to",
          "type": "address"
        },
        {
          "indexed": true,
          "internalType": "uint256",
          "name": "tokenId",
          "type": "uint256"
        }
      ],
      "name": "Transfer",
      "type": "event"
    },
    {
      "inputs": [],
      "name": "_creator_",
      "outputs": [
        {
          "internalType": "string",
          "name": "",
          "type": "string"
        }
      ],
      "stateMutability": "view",
      "type": "function"
    },
    {
      "inputs": [
        {
          "internalType": "address[]",
          "name": "addrList",
          "type": "address[]"
        }
      ],
      "name": "addToWhiteList",
      "outputs": [],
      "stateMutability": "nonpayable",
      "type": "function"
    },
    {
      "inputs": [
        {
          "internalType": "address",
          "name": "to",
          "type": "address"
        },
        {
          "internalType": "uint256",
          "name": "tokenId",
          "type": "uint256"
        }
      ],
      "name": "approve",
      "outputs": [],
      "stateMutability": "nonpayable",
      "type": "function"
    },
    {
      "inputs": [
        {
          "internalType": "address",
          "name": "owner",
          "type": "address"
        }
      ],
      "name": "balanceOf",
      "outputs": [
        {
          "internalType": "uint256",
          "name": "",
          "type": "uint256"
        }
      ],
      "stateMutability": "view",
      "type": "function"
    },
    {
      "inputs": [],
      "name": "baseURI",
      "outputs": [
        {
          "internalType": "string",
          "name": "",
          "type": "string"
        }
      ],
      "stateMutability": "view",
      "type": "function"
    },
    {
      "inputs": [
        {
          "internalType": "uint256",
          "name": "tokenId",
          "type": "uint256"
        }
      ],
      "name": "burn",
      "outputs": [],
      "stateMutability": "nonpayable",
      "type": "function"
    },
    {
      "inputs": [],
      "name": "deleteDefaultRoyalty",
      "outputs": [],
      "stateMutability": "nonpayable",
      "type": "function"
    },
    {
      "inputs": [],
      "name": "disableWhiteList",
      "outputs": [],
      "stateMutability": "nonpayable",
      "type": "function"
    },
    {
      "inputs": [],
      "name": "enableWhiteList",
      "outputs": [],
      "stateMutability": "nonpayable",
      "type": "function"
    },
    {
      "inputs": [
        {
          "internalType": "uint256",
          "name": "tokenId",
          "type": "uint256"
        }
      ],
      "name": "getApproved",
      "outputs": [
        {
          "internalType": "address",
          "name": "",
          "type": "address"
        }
      ],
      "stateMutability": "view",
      "type": "function"
    },
    {
      "inputs": [
        {
          "internalType": "string",
          "name": "_creator",
          "type": "string"
        },
        {
          "internalType": "string",
          "name": "_name",
          "type": "string"
        },
        {
          "internalType": "string",
          "name": "_symbol",
          "type": "string"
        },
        {
          "internalType": "string",
          "name": "_baseURI",
          "type": "string"
        },
        {
          "internalType": "bool",
          "name": "_sameURIForAllTokens",
          "type": "bool"
        },
        {
          "internalType": "uint256",
          "name": "_maxSupply",
          "type": "uint256"
        },
        {
          "internalType": "address",
          "name": "_owner",
          "type": "address"
        },
        {
          "internalType": "uint96",
          "name": "_royaltyNumerator",
          "type": "uint96"
        },
        {
          "internalType": "address",
          "name": "_royaltyReciever",
          "type": "address"
        }
      ],
      "name": "initialize",
      "outputs": [],
      "stateMutability": "nonpayable",
      "type": "function"
    },
    {
      "inputs": [
        {
          "internalType": "address",
          "name": "owner",
          "type": "address"
        },
        {
          "internalType": "address",
          "name": "operator",
          "type": "address"
        }
      ],
      "name": "isApprovedForAll",
      "outputs": [
        {
          "internalType": "bool",
          "name": "",
          "type": "bool"
        }
      ],
      "stateMutability": "view",
      "type": "function"
    },
    {
      "inputs": [],
      "name": "maxSupply",
      "outputs": [
        {
          "internalType": "uint256",
          "name": "",
          "type": "uint256"
        }
      ],
      "stateMutability": "view",
      "type": "function"
    },
    {
      "inputs": [],
      "name": "name",
      "outputs": [
        {
          "internalType": "string",
          "name": "",
          "type": "string"
        }
      ],
      "stateMutability": "view",
      "type": "function"
    },
    {
      "inputs": [],
      "name": "owner",
      "outputs": [
        {
          "internalType": "address",
          "name": "",
          "type": "address"
        }
      ],
      "stateMutability": "view",
      "type": "function"
    },
    {
      "inputs": [
        {
          "internalType": "uint256",
          "name": "tokenId",
          "type": "uint256"
        }
      ],
      "name": "ownerOf",
      "outputs": [
        {
          "internalType": "address",
          "name": "",
          "type": "address"
        }
      ],
      "stateMutability": "view",
      "type": "function"
    },
    {
      "inputs": [
        {
          "internalType": "address[]",
          "name": "addrList",
          "type": "address[]"
        }
      ],
      "name": "removeFromWhiteList",
      "outputs": [],
      "stateMutability": "nonpayable",
      "type": "function"
    },
    {
      "inputs": [],
      "name": "renounceOwnership",
      "outputs": [],
      "stateMutability": "nonpayable",
      "type": "function"
    },
    {
      "inputs": [
        {
          "internalType": "uint256",
          "name": "tokenId",
          "type": "uint256"
        }
      ],
      "name": "resetTokenRoyalty",
      "outputs": [],
      "stateMutability": "nonpayable",
      "type": "function"
    },
    {
      "inputs": [
        {
          "internalType": "uint256",
          "name": "_tokenId",
          "type": "uint256"
        },
        {
          "internalType": "uint256",
          "name": "_salePrice",
          "type": "uint256"
        }
      ],
      "name": "royaltyInfo",
      "outputs": [
        {
          "internalType": "address",
          "name": "",
          "type": "address"
        },
        {
          "internalType": "uint256",
          "name": "",
          "type": "uint256"
        }
      ],
      "stateMutability": "view",
      "type": "function"
    },
    {
      "inputs": [
        {
          "internalType": "address",
          "name": "to",
          "type": "address"
        }
      ],
      "name": "safeMint",
      "outputs": [],
      "stateMutability": "nonpayable",
      "type": "function"
    },
    {
      "inputs": [],
      "name": "safeMint",
      "outputs": [],
      "stateMutability": "nonpayable",
      "type": "function"
    },
    {
      "inputs": [
        {
          "internalType": "address[]",
          "name": "to",
          "type": "address[]"
        }
      ],
      "name": "safeMintBatch",
      "outputs": [],
      "stateMutability": "nonpayable",
      "type": "function"
    },
    {
      "inputs": [
        {
          "internalType": "address",
          "name": "from",
          "type": "address"
        },
        {
          "internalType": "address",
          "name": "to",
          "type": "address"
        },
        {
          "internalType": "uint256",
          "name": "tokenId",
          "type": "uint256"
        }
      ],
      "name": "safeTransferFrom",
      "outputs": [],
      "stateMutability": "nonpayable",
      "type": "function"
    },
    {
      "inputs": [
        {
          "internalType": "address",
          "name": "from",
          "type": "address"
        },
        {
          "internalType": "address",
          "name": "to",
          "type": "address"
        },
        {
          "internalType": "uint256",
          "name": "tokenId",
          "type": "uint256"
        },
        {
          "internalType": "bytes",
          "name": "_data",
          "type": "bytes"
        }
      ],
      "name": "safeTransferFrom",
      "outputs": [],
      "stateMutability": "nonpayable",
      "type": "function"
    },
    {
      "inputs": [],
      "name": "sameURI",
      "outputs": [
        {
          "internalType": "bool",
          "name": "",
          "type": "bool"
        }
      ],
      "stateMutability": "view",
      "type": "function"
    },
    {
      "inputs": [
        {
          "internalType": "address",
          "name": "operator",
          "type": "address"
        },
        {
          "internalType": "bool",
          "name": "approved",
          "type": "bool"
        }
      ],
      "name": "setApprovalForAll",
      "outputs": [],
      "stateMutability": "nonpayable",
      "type": "function"
    },
    {
      "inputs": [
        {
          "internalType": "string",
          "name": "baseURI_",
          "type": "string"
        },
        {
          "internalType": "bool",
          "name": "sameForAllTokens",
          "type": "bool"
        }
      ],
      "name": "setBaseURI",
      "outputs": [],
      "stateMutability": "nonpayable",
      "type": "function"
    },
    {
      "inputs": [
        {
          "internalType": "string",
          "name": "_creatorName",
          "type": "string"
        }
      ],
      "name": "setCreatorName",
      "outputs": [],
      "stateMutability": "nonpayable",
      "type": "function"
    },
    {
      "inputs": [
        {
          "internalType": "uint256",
          "name": "tokenId",
          "type": "uint256"
        },
        {
          "internalType": "address",
          "name": "receiver",
          "type": "address"
        },
        {
          "internalType": "uint96",
          "name": "feeNumerator",
          "type": "uint96"
        }
      ],
      "name": "setTokenRoyalty",
      "outputs": [],
      "stateMutability": "nonpayable",
      "type": "function"
    },
    {
      "inputs": [
        {
          "internalType": "bytes4",
          "name": "interfaceId",
          "type": "bytes4"
        }
      ],
      "name": "supportsInterface",
      "outputs": [
        {
          "internalType": "bool",
          "name": "",
          "type": "bool"
        }
      ],
      "stateMutability": "view",
      "type": "function"
    },
    {
      "inputs": [],
      "name": "symbol",
      "outputs": [
        {
          "internalType": "string",
          "name": "",
          "type": "string"
        }
      ],
      "stateMutability": "view",
      "type": "function"
    },
    {
      "inputs": [
        {
          "internalType": "uint256",
          "name": "index",
          "type": "uint256"
        }
      ],
      "name": "tokenByIndex",
      "outputs": [
        {
          "internalType": "uint256",
          "name": "",
          "type": "uint256"
        }
      ],
      "stateMutability": "view",
      "type": "function"
    },
    {
      "inputs": [
        {
          "internalType": "address",
          "name": "owner",
          "type": "address"
        },
        {
          "internalType": "uint256",
          "name": "index",
          "type": "uint256"
        }
      ],
      "name": "tokenOfOwnerByIndex",
      "outputs": [
        {
          "internalType": "uint256",
          "name": "",
          "type": "uint256"
        }
      ],
      "stateMutability": "view",
      "type": "function"
    },
    {
      "inputs": [
        {
          "internalType": "uint256",
          "name": "tokenId",
          "type": "uint256"
        }
      ],
      "name": "tokenURI",
      "outputs": [
        {
          "internalType": "string",
          "name": "",
          "type": "string"
        }
      ],
      "stateMutability": "view",
      "type": "function"
    },
    {
      "inputs": [],
      "name": "totalSupply",
      "outputs": [
        {
          "internalType": "uint256",
          "name": "",
          "type": "uint256"
        }
      ],
      "stateMutability": "view",
      "type": "function"
    },
    {
      "inputs": [
        {
          "internalType": "address",
          "name": "from",
          "type": "address"
        },
        {
          "internalType": "address",
          "name": "to",
          "type": "address"
        },
        {
          "internalType": "uint256",
          "name": "tokenId",
          "type": "uint256"
        }
      ],
      "name": "transferFrom",
      "outputs": [],
      "stateMutability": "nonpayable",
      "type": "function"
    },
    {
      "inputs": [
        {
          "internalType": "address",
          "name": "newOwner",
          "type": "address"
        }
      ],
      "name": "transferOwnership",
      "outputs": [],
      "stateMutability": "nonpayable",
      "type": "function"
    }
  ],
  "bytecode": "0x60806040523480156200001157600080fd5b506200001c62000022565b62000152565b6200002e60ff62000031565b50565b60008054610100900460ff1615620000ca578160ff1660011480156200006a575062000068306200014360201b620015101760201c565b155b620000c25760405162461bcd60e51b815260206004820152602e602482015260008051602062002f1783398151915260448201526d191e481a5b9a5d1a585b1a5e995960921b60648201526084015b60405180910390fd5b506000919050565b60005460ff808416911610620001295760405162461bcd60e51b815260206004820152602e602482015260008051602062002f1783398151915260448201526d191e481a5b9a5d1a585b1a5e995960921b6064820152608401620000b9565b506000805460ff191660ff92909216919091179055600190565b6001600160a01b03163b151590565b612db580620001626000396000f3fe608060405234801561001057600080fd5b50600436106102325760003560e01c80636c0360eb11610130578063b11560c5116100b8578063c87b56dd1161007c578063c87b56dd146104a6578063d5abeb01146104b9578063dcd83616146104c3578063e985e9c5146104cb578063f2fde38b1461050757600080fd5b8063b11560c514610457578063b64b21ca1461046a578063b88d4fde1461047d578063bb99e70114610490578063c43971151461049857600080fd5b80638a616bc0116100ff5780638a616bc01461040f5780638da5cb5b1461042257806395d89b4114610434578063a22cb4651461043c578063aa1b103f1461044f57600080fd5b80636c0360eb146103d957806370a08231146103e1578063715018a6146103f4578063740d73f3146103fc57600080fd5b80632f745c59116101be578063539b2ba411610182578063539b2ba4146103905780635944c7531461039857806360eb9485146103ab5780636352211e146103be5780636871ee40146103d157600080fd5b80632f745c591461033157806340d097c31461034457806342842e0e1461035757806342966c681461036a5780634f6ccce71461037d57600080fd5b806318160ddd1161020557806318160ddd146102b457806323b872dd146102c657806326552278146102d95780632a55205a146102ec5780632df5980d1461031e57600080fd5b806301ffc9a71461023757806306fdde031461025f578063081812fc14610274578063095ea7b31461029f575b600080fd5b61024a61024536600461242f565b61051a565b60405190151581526020015b60405180910390f35b61026761052b565b60405161025691906124ab565b6102876102823660046124be565b6105bd565b6040516001600160a01b039091168152602001610256565b6102b26102ad3660046124ee565b610657565b005b60cb545b604051908152602001610256565b6102b26102d4366004612518565b61076c565b6102b26102e736600461259b565b61079e565b6102ff6102fa366004612648565b610820565b604080516001600160a01b039093168352602083019190915201610256565b6102b261032c366004612709565b6108cc565b6102b861033f3660046124ee565b610a1f565b6102b2610352366004612803565b610ab5565b6102b2610365366004612518565b610b0b565b6102b26103783660046124be565b610b26565b6102b861038b3660046124be565b610ba0565b6102b2610c33565b6102b26103a636600461281e565b610c6e565b6102b26103b936600461285a565b610d3c565b6102876103cc3660046124be565b610d7b565b6102b2610df2565b610267610f1f565b6102b86103ef366004612803565b610fae565b6102b2611035565b6102b261040a36600461259b565b61106c565b6102b261041d3660046124be565b611100565b61015f546001600160a01b0316610287565b61026761113c565b6102b261044a36600461288f565b61114b565b6102b2611156565b6102b261046536600461259b565b61118b565b6102b26104783660046128c2565b61121f565b6102b261048b366004612907565b6112ac565b6102676112e4565b6101955461024a9060ff1681565b6102676104b43660046124be565b6112f2565b6102b86101965481565b6102b261143f565b61024a6104d9366004612983565b6001600160a01b039182166000908152609c6020908152604080832093909416825291909152205460ff1690565b6102b2610515366004612803565b611477565b60006105258261151f565b92915050565b60606097805461053a906129ad565b80601f0160208091040260200160405190810160405280929190818152602001828054610566906129ad565b80156105b35780601f10610588576101008083540402835291602001916105b3565b820191906000526020600020905b81548152906001019060200180831161059657829003601f168201915b5050505050905090565b6000818152609960205260408120546001600160a01b031661063b5760405162461bcd60e51b815260206004820152602c60248201527f4552433732313a20617070726f76656420717565727920666f72206e6f6e657860448201526b34b9ba32b73a103a37b5b2b760a11b60648201526084015b60405180910390fd5b506000908152609b60205260409020546001600160a01b031690565b600061066282610d7b565b9050806001600160a01b0316836001600160a01b0316036106cf5760405162461bcd60e51b815260206004820152602160248201527f4552433732313a20617070726f76616c20746f2063757272656e74206f776e656044820152603960f91b6064820152608401610632565b336001600160a01b03821614806106eb57506106eb81336104d9565b61075d5760405162461bcd60e51b815260206004820152603860248201527f4552433732313a20617070726f76652063616c6c6572206973206e6f74206f7760448201527f6e6572206e6f7220617070726f76656420666f7220616c6c00000000000000006064820152608401610632565b610767838361152a565b505050565b610777335b82611598565b6107935760405162461bcd60e51b8152600401610632906129e7565b61076783838361168f565b61015f546001600160a01b031633146107c95760405162461bcd60e51b815260040161063290612a38565b6000805b8251811015610767576101915491506107eb61019180546001019055565b61080e83828151811061080057610800612a6d565b602002602001015183611836565b8061081881612a99565b9150506107cd565b60008281526066602090815260408083208151808301909252546001600160a01b038116808352600160a01b9091046001600160601b03169282019290925282916108955750604080518082019091526065546001600160a01b0381168252600160a01b90046001600160601b031660208201525b6020810151600090612710906108b4906001600160601b031687612ab2565b6108be9190612ae7565b915196919550909350505050565b60006108d86001611850565b905080156108f0576000805461ff0019166101001790555b8951610904906101939060208d0190612380565b5061090f89896118dd565b61091761190e565b61091f61190e565b61092884611935565b865161093c906101949060208a0190612380565b50610195805460ff19168715151790556101968590556001600160601b038316156109cd576001600160a01b0382166109c35760405162461bcd60e51b8152602060048201526024808201527f436f6c6c656374696f6e3a20496e76616c696420526f79616c7479207265636560448201526334bb32b960e11b6064820152608401610632565b6109cd828461195c565b8015610a13576000805461ff0019169055604051600181527f7f26b83ff96e1f2b6a682f133852f6798a09c465da95921460cefb38474024989060200160405180910390a15b50505050505050505050565b6000610a2a83610fae565b8210610a8c5760405162461bcd60e51b815260206004820152602b60248201527f455243373231456e756d657261626c653a206f776e657220696e646578206f7560448201526a74206f6620626f756e647360a81b6064820152608401610632565b506001600160a01b0391909116600090815260c960209081526040808320938352929052205490565b61015f546001600160a01b03163314610ae05760405162461bcd60e51b815260040161063290612a38565b6000610aec6101915490565b9050610afd61019180546001019055565b610b078282611836565b5050565b610767838383604051806020016040528060008152506112ac565b610b2f33610771565b610b945760405162461bcd60e51b815260206004820152603060248201527f4552433732314275726e61626c653a2063616c6c6572206973206e6f74206f7760448201526f1b995c881b9bdc88185c1c1c9bdd995960821b6064820152608401610632565b610b9d81611a59565b50565b6000610bab60cb5490565b8210610c0e5760405162461bcd60e51b815260206004820152602c60248201527f455243373231456e756d657261626c653a20676c6f62616c20696e646578206f60448201526b7574206f6620626f756e647360a01b6064820152608401610632565b60cb8281548110610c2157610c21612a6d565b90600052602060002001549050919050565b61015f546001600160a01b03163314610c5e5760405162461bcd60e51b815260040161063290612a38565b610197805460ff19166001179055565b61015f546001600160a01b03163314610c995760405162461bcd60e51b815260040161063290612a38565b610ca283610d7b565b6001600160a01b0316336001600160a01b031614610d325760405162461bcd60e51b815260206004820152604160248201527f436f6c6c656374696f6e3a20796f75206d75737420626520746865206f776e6560448201527f72206f662074686520746f6b656e20746f207365742074686520726f79616c746064820152607960f81b608482015260a401610632565b610767828261195c565b61015f546001600160a01b03163314610d675760405162461bcd60e51b815260040161063290612a38565b8051610b0790610193906020840190612380565b6000818152609960205260408120546001600160a01b0316806105255760405162461bcd60e51b815260206004820152602960248201527f4552433732313a206f776e657220717565727920666f72206e6f6e657869737460448201526832b73a103a37b5b2b760b91b6064820152608401610632565b61019754339060ff16610e535760405162461bcd60e51b8152602060048201526024808201527f436f6c6c656374696f6e3a2077686974654c697374206973206e6f7420656e61604482015263189b195960e21b6064820152608401610632565b6001600160a01b0381166000908152610192602052604090205460ff16610ed55760405162461bcd60e51b815260206004820152603060248201527f436f6c6c656374696f6e3a2061646472657373206e6f7420726567697374657260448201526f1959081a5b881dda1a5d19481b1a5cdd60821b6064820152608401610632565b6000610ee16101915490565b9050610ef261019180546001019055565b610efc8282611836565b506001600160a01b0316600090815261019260205260409020805460ff19169055565b6101948054610f2d906129ad565b80601f0160208091040260200160405190810160405280929190818152602001828054610f59906129ad565b8015610fa65780601f10610f7b57610100808354040283529160200191610fa6565b820191906000526020600020905b815481529060010190602001808311610f8957829003601f168201915b505050505081565b60006001600160a01b0382166110195760405162461bcd60e51b815260206004820152602a60248201527f4552433732313a2062616c616e636520717565727920666f7220746865207a65604482015269726f206164647265737360b01b6064820152608401610632565b506001600160a01b03166000908152609a602052604090205490565b61015f546001600160a01b031633146110605760405162461bcd60e51b815260040161063290612a38565b61106a6000611a62565b565b61015f546001600160a01b031633146110975760405162461bcd60e51b815260040161063290612a38565b60005b8151811015610b0757600161019260008484815181106110bc576110bc612a6d565b6020908102919091018101516001600160a01b03168252810191909152604001600020805460ff1916911515919091179055806110f881612a99565b91505061109a565b61015f546001600160a01b0316331461112b5760405162461bcd60e51b815260040161063290612a38565b600090815260666020526040812055565b60606098805461053a906129ad565b610b07338383611ab5565b61015f546001600160a01b031633146111815760405162461bcd60e51b815260040161063290612a38565b61106a6000606555565b61015f546001600160a01b031633146111b65760405162461bcd60e51b815260040161063290612a38565b60005b8151811015610b0757600061019260008484815181106111db576111db612a6d565b6020908102919091018101516001600160a01b03168252810191909152604001600020805460ff19169115159190911790558061121781612a99565b9150506111b9565b61015f546001600160a01b0316331461124a5760405162461bcd60e51b815260040161063290612a38565b815161125e90610194906020850190612380565b50610195805460ff19168215151790556040517fb939e4eec1be4c65f209c823721a954c35bd434a61d9e058d7fa1c1ffbfc8bb8906112a09084908490612afb565b60405180910390a15050565b6112b63383611598565b6112d25760405162461bcd60e51b8152600401610632906129e7565b6112de84848484611b83565b50505050565b6101938054610f2d906129ad565b6000818152609960205260409020546060906001600160a01b03166113715760405162461bcd60e51b815260206004820152602f60248201527f4552433732314d657461646174613a2055524920717565727920666f72206e6f60448201526e3732bc34b9ba32b73a103a37b5b2b760891b6064820152608401610632565b6101955460ff166113ad5761019461138883611bb6565b604051602001611399929190612b3b565b604051602081830303815290604052610525565b61019480546113bb906129ad565b80601f01602080910402602001604051908101604052809291908181526020018280546113e7906129ad565b80156114345780601f1061140957610100808354040283529160200191611434565b820191906000526020600020905b81548152906001019060200180831161141757829003601f168201915b505050505092915050565b61015f546001600160a01b0316331461146a5760405162461bcd60e51b815260040161063290612a38565b610197805460ff19169055565b61015f546001600160a01b031633146114a25760405162461bcd60e51b815260040161063290612a38565b6001600160a01b0381166115075760405162461bcd60e51b815260206004820152602660248201527f4f776e61626c653a206e6577206f776e657220697320746865207a65726f206160448201526564647265737360d01b6064820152608401610632565b610b9d81611a62565b6001600160a01b03163b151590565b600061052582611cb7565b6000818152609b6020526040902080546001600160a01b0319166001600160a01b038416908117909155819061155f82610d7b565b6001600160a01b03167f8c5be1e5ebec7d5bd14f71427d1e84f3dd0314c0f7b2291e5b200ac8c7c3b92560405160405180910390a45050565b6000818152609960205260408120546001600160a01b03166116115760405162461bcd60e51b815260206004820152602c60248201527f4552433732313a206f70657261746f7220717565727920666f72206e6f6e657860448201526b34b9ba32b73a103a37b5b2b760a11b6064820152608401610632565b600061161c83610d7b565b9050806001600160a01b0316846001600160a01b0316148061166357506001600160a01b038082166000908152609c602090815260408083209388168352929052205460ff165b806116875750836001600160a01b031661167c846105bd565b6001600160a01b0316145b949350505050565b826001600160a01b03166116a282610d7b565b6001600160a01b0316146117065760405162461bcd60e51b815260206004820152602560248201527f4552433732313a207472616e736665722066726f6d20696e636f72726563742060448201526437bbb732b960d91b6064820152608401610632565b6001600160a01b0382166117685760405162461bcd60e51b8152602060048201526024808201527f4552433732313a207472616e7366657220746f20746865207a65726f206164646044820152637265737360e01b6064820152608401610632565b611773838383611cdc565b61177e60008261152a565b6001600160a01b0383166000908152609a602052604081208054600192906117a7908490612be1565b90915550506001600160a01b0382166000908152609a602052604081208054600192906117d5908490612bf8565b909155505060008181526099602052604080822080546001600160a01b0319166001600160a01b0386811691821790925591518493918716917fddf252ad1be2c89b69c2b068fc378daa952ba7f163c4a11628f55a4df523b3ef91a4505050565b610b07828260405180602001604052806000815250611ce7565b60008054610100900460ff1615611897578160ff1660011480156118735750303b155b61188f5760405162461bcd60e51b815260040161063290612c10565b506000919050565b60005460ff8084169116106118be5760405162461bcd60e51b815260040161063290612c10565b506000805460ff191660ff92909216919091179055600190565b919050565b600054610100900460ff166119045760405162461bcd60e51b815260040161063290612c5e565b610b078282611d1a565b600054610100900460ff1661106a5760405162461bcd60e51b815260040161063290612c5e565b600054610100900460ff166115075760405162461bcd60e51b815260040161063290612c5e565b6127106001600160601b03821611156119ca5760405162461bcd60e51b815260206004820152602a60248201527f455243323938313a20726f79616c7479206665652077696c6c206578636565646044820152692073616c65507269636560b01b6064820152608401610632565b6001600160a01b038216611a205760405162461bcd60e51b815260206004820152601960248201527f455243323938313a20696e76616c6964207265636569766572000000000000006044820152606401610632565b604080518082019091526001600160a01b039092168083526001600160601b039091166020909201829052600160a01b90910217606555565b610b9d81611d68565b61015f80546001600160a01b038381166001600160a01b0319831681179093556040519116919082907f8be0079c531659141344cd1fd0a4f28419497f9722a3daafe3b4186f6b6457e090600090a35050565b816001600160a01b0316836001600160a01b031603611b165760405162461bcd60e51b815260206004820152601960248201527f4552433732313a20617070726f766520746f2063616c6c6572000000000000006044820152606401610632565b6001600160a01b038381166000818152609c6020908152604080832094871680845294825291829020805460ff191686151590811790915591519182527f17307eab39ab6107e8899845ad3d59bd9653f200f220920489ca2b5937696c31910160405180910390a3505050565b611b8e84848461168f565b611b9a84848484611d71565b6112de5760405162461bcd60e51b815260040161063290612ca9565b606081600003611bdd5750506040805180820190915260018152600360fc1b602082015290565b8160005b8115611c075780611bf181612a99565b9150611c009050600a83612ae7565b9150611be1565b60008167ffffffffffffffff811115611c2257611c22612554565b6040519080825280601f01601f191660200182016040528015611c4c576020820181803683370190505b5090505b841561168757611c61600183612be1565b9150611c6e600a86612cfb565b611c79906030612bf8565b60f81b818381518110611c8e57611c8e612a6d565b60200101906001600160f81b031916908160001a905350611cb0600a86612ae7565b9450611c50565b60006001600160e01b0319821663780e9d6360e01b1480610525575061052582611e72565b610767838383611eb2565b611cf18383611f6a565b611cfe6000848484611d71565b6107675760405162461bcd60e51b815260040161063290612ca9565b600054610100900460ff16611d415760405162461bcd60e51b815260040161063290612c5e565b8151611d54906097906020850190612380565b508051610767906098906020840190612380565b61112b81611fc6565b60006001600160a01b0384163b15611e6757604051630a85bd0160e11b81526001600160a01b0385169063150b7a0290611db5903390899088908890600401612d0f565b6020604051808303816000875af1925050508015611df0575060408051601f3d908101601f19168201909252611ded91810190612d4c565b60015b611e4d573d808015611e1e576040519150601f19603f3d011682016040523d82523d6000602084013e611e23565b606091505b508051600003611e455760405162461bcd60e51b815260040161063290612ca9565b805181602001fd5b6001600160e01b031916630a85bd0160e11b149050611687565b506001949350505050565b60006001600160e01b031982166380ac58cd60e01b1480611ea357506001600160e01b03198216635b5e139f60e01b145b8061052557506105258261206d565b6001600160a01b038316611f0d57611f088160cb8054600083815260cc60205260408120829055600182018355919091527fa7ce836d032b2bf62b7e2097a8e0a6d8aeb35405ad15271e96d3b0188a1d06fb0155565b611f30565b816001600160a01b0316836001600160a01b031614611f3057611f3083826120a2565b6001600160a01b038216611f47576107678161213f565b826001600160a01b0316826001600160a01b0316146107675761076782826121ee565b610196548110611fbc5760405162461bcd60e51b815260206004820152601c60248201527f436f6c6c656374696f6e3a20496e76616c696420746f6b656e204964000000006044820152606401610632565b610b078282612232565b6000611fd182610d7b565b9050611fdf81600084611cdc565b611fea60008361152a565b6001600160a01b0381166000908152609a60205260408120805460019290612013908490612be1565b909155505060008281526099602052604080822080546001600160a01b0319169055518391906001600160a01b038416907fddf252ad1be2c89b69c2b068fc378daa952ba7f163c4a11628f55a4df523b3ef908390a45050565b60006001600160e01b0319821663152a902d60e11b148061052557506301ffc9a760e01b6001600160e01b0319831614610525565b600060016120af84610fae565b6120b99190612be1565b600083815260ca602052604090205490915080821461210c576001600160a01b038416600090815260c960209081526040808320858452825280832054848452818420819055835260ca90915290208190555b50600091825260ca602090815260408084208490556001600160a01b03909416835260c981528383209183525290812055565b60cb5460009061215190600190612be1565b600083815260cc602052604081205460cb805493945090928490811061217957612179612a6d565b906000526020600020015490508060cb838154811061219a5761219a612a6d565b600091825260208083209091019290925582815260cc909152604080822084905585825281205560cb8054806121d2576121d2612d69565b6001900381819060005260206000200160009055905550505050565b60006121f983610fae565b6001600160a01b03909316600090815260c960209081526040808320868452825280832085905593825260ca9052919091209190915550565b6001600160a01b0382166122885760405162461bcd60e51b815260206004820181905260248201527f4552433732313a206d696e7420746f20746865207a65726f20616464726573736044820152606401610632565b6000818152609960205260409020546001600160a01b0316156122ed5760405162461bcd60e51b815260206004820152601c60248201527f4552433732313a20746f6b656e20616c7265616479206d696e746564000000006044820152606401610632565b6122f960008383611cdc565b6001600160a01b0382166000908152609a60205260408120805460019290612322908490612bf8565b909155505060008181526099602052604080822080546001600160a01b0319166001600160a01b03861690811790915590518392907fddf252ad1be2c89b69c2b068fc378daa952ba7f163c4a11628f55a4df523b3ef908290a45050565b82805461238c906129ad565b90600052602060002090601f0160209004810192826123ae57600085556123f4565b82601f106123c757805160ff19168380011785556123f4565b828001600101855582156123f4579182015b828111156123f45782518255916020019190600101906123d9565b50612400929150612404565b5090565b5b808211156124005760008155600101612405565b6001600160e01b031981168114610b9d57600080fd5b60006020828403121561244157600080fd5b813561244c81612419565b9392505050565b60005b8381101561246e578181015183820152602001612456565b838111156112de5750506000910152565b60008151808452612497816020860160208601612453565b601f01601f19169290920160200192915050565b60208152600061244c602083018461247f565b6000602082840312156124d057600080fd5b5035919050565b80356001600160a01b03811681146118d857600080fd5b6000806040838503121561250157600080fd5b61250a836124d7565b946020939093013593505050565b60008060006060848603121561252d57600080fd5b612536846124d7565b9250612544602085016124d7565b9150604084013590509250925092565b634e487b7160e01b600052604160045260246000fd5b604051601f8201601f1916810167ffffffffffffffff8111828210171561259357612593612554565b604052919050565b600060208083850312156125ae57600080fd5b823567ffffffffffffffff808211156125c657600080fd5b818501915085601f8301126125da57600080fd5b8135818111156125ec576125ec612554565b8060051b91506125fd84830161256a565b818152918301840191848101908884111561261757600080fd5b938501935b8385101561263c5761262d856124d7565b8252938501939085019061261c565b98975050505050505050565b6000806040838503121561265b57600080fd5b50508035926020909101359150565b600067ffffffffffffffff83111561268457612684612554565b612697601f8401601f191660200161256a565b90508281528383830111156126ab57600080fd5b828260208301376000602084830101529392505050565b600082601f8301126126d357600080fd5b61244c8383356020850161266a565b803580151581146118d857600080fd5b80356001600160601b03811681146118d857600080fd5b60008060008060008060008060006101208a8c03121561272857600080fd5b893567ffffffffffffffff8082111561274057600080fd5b61274c8d838e016126c2565b9a5060208c013591508082111561276257600080fd5b61276e8d838e016126c2565b995060408c013591508082111561278457600080fd5b6127908d838e016126c2565b985060608c01359150808211156127a657600080fd5b506127b38c828d016126c2565b9650506127c260808b016126e2565b945060a08a013593506127d760c08b016124d7565b92506127e560e08b016126f2565b91506127f46101008b016124d7565b90509295985092959850929598565b60006020828403121561281557600080fd5b61244c826124d7565b60008060006060848603121561283357600080fd5b83359250612843602085016124d7565b9150612851604085016126f2565b90509250925092565b60006020828403121561286c57600080fd5b813567ffffffffffffffff81111561288357600080fd5b611687848285016126c2565b600080604083850312156128a257600080fd5b6128ab836124d7565b91506128b9602084016126e2565b90509250929050565b600080604083850312156128d557600080fd5b823567ffffffffffffffff8111156128ec57600080fd5b6128f8858286016126c2565b9250506128b9602084016126e2565b6000806000806080858703121561291d57600080fd5b612926856124d7565b9350612934602086016124d7565b925060408501359150606085013567ffffffffffffffff81111561295757600080fd5b8501601f8101871361296857600080fd5b6129778782356020840161266a565b91505092959194509250565b6000806040838503121561299657600080fd5b61299f836124d7565b91506128b9602084016124d7565b600181811c908216806129c157607f821691505b6020821081036129e157634e487b7160e01b600052602260045260246000fd5b50919050565b60208082526031908201527f4552433732313a207472616e736665722063616c6c6572206973206e6f74206f6040820152701ddb995c881b9bdc88185c1c1c9bdd9959607a1b606082015260800190565b6020808252818101527f4f776e61626c653a2063616c6c6572206973206e6f7420746865206f776e6572604082015260600190565b634e487b7160e01b600052603260045260246000fd5b634e487b7160e01b600052601160045260246000fd5b600060018201612aab57612aab612a83565b5060010190565b6000816000190483118215151615612acc57612acc612a83565b500290565b634e487b7160e01b600052601260045260246000fd5b600082612af657612af6612ad1565b500490565b604081526000612b0e604083018561247f565b905082151560208301529392505050565b60008151612b31818560208601612453565b9290920192915050565b600080845481600182811c915080831680612b5757607f831692505b60208084108203612b7657634e487b7160e01b86526022600452602486fd5b818015612b8a5760018114612b9b57612bc8565b60ff19861689528489019650612bc8565b60008b81526020902060005b86811015612bc05781548b820152908501908301612ba7565b505084890196505b505050505050612bd88185612b1f565b95945050505050565b600082821015612bf357612bf3612a83565b500390565b60008219821115612c0b57612c0b612a83565b500190565b6020808252602e908201527f496e697469616c697a61626c653a20636f6e747261637420697320616c72656160408201526d191e481a5b9a5d1a585b1a5e995960921b606082015260800190565b6020808252602b908201527f496e697469616c697a61626c653a20636f6e7472616374206973206e6f74206960408201526a6e697469616c697a696e6760a81b606082015260800190565b60208082526032908201527f4552433732313a207472616e7366657220746f206e6f6e20455243373231526560408201527131b2b4bb32b91034b6b83632b6b2b73a32b960711b606082015260800190565b600082612d0a57612d0a612ad1565b500690565b6001600160a01b0385811682528416602082015260408101839052608060608201819052600090612d429083018461247f565b9695505050505050565b600060208284031215612d5e57600080fd5b815161244c81612419565b634e487b7160e01b600052603160045260246000fdfea264697066735822122086b19f39781f587eee5f14de245ebb3a4d58d1ae84a68126492243706357708464736f6c634300080d0033496e697469616c697a61626c653a20636f6e747261637420697320616c726561",
  "linkReferences": {},
  "deployedLinkReferences": {}
}